:100000000C9472000C9493000C9493000C94930045
:100010000C9493000C9493000C9493000C94930014
:100020000C9493000C9493000C9493000C94930004
:100030000C9493000C9493000C9493000C949300F4
:100040000C9493000C9410010C9493000C94930066
:100050000C9493000C9493000C9493000C949300D4
:100060000C9493000C9493000C9493000C949300C4
:100070000C9493000C9493000C9493000C949300B4
:100080000C9493000C9493000C9493000C949300A4
:100090000C9493000C9493000C9493000C94930094
:1000A0000C9493000C9493000C9493000C94930084
:1000B0000C9493000C9493000C9493000C94930074
:1000C0000C9493000C9493000C9493000C94930064
:1000D0000C9493000C9493000C9493000C94930054
:1000E0000C94930011241FBECFEFD1E2DEBFCDBF31
:1000F00000E00CBF12E0A0E0B2E0E8E4F6E000E0CF
:100100000BBF02C007900D92AC30B107D9F722E0C7
:10011000ACE0B2E001C01D92A831B207E1F70E9445
:1001200089020C9422030C9400001092C50087E60B
:100130008093C40088E18093C10086E08093C20070
:1001400008959091C00095FFFCCF8093C60008955C
:10015000CF93DF9360E177E20E94B302EC0180E38A
:10016000860F0E94A100CE0168EE73E00E94B302E8
:10017000EC0180E3860F0E94A100CE0164E670E0EE
:100180000E94B302EC0180E3860F0E94A100CE0121
:100190006AE070E00E94B302C82F80E3860F0E94DD
:1001A000A10080E38C0FDF91CF910C94A100CF933D
:1001B000DF93EC018991811103C0DF91CF91089504
:1001C0000E94A100F7CF8AE00E94A1008DE00C946C
:1001D000A10081B1836081B981B18C6081B981B1A5
:1001E000806381B981B1806C81B987B1806C87B936
:1001F00087B1806387B9E1E8F0E08081886080831F
:1002000083EC99E09093890080938800AFE6B0E09A
:100210008C9182608C938081826080837894089531
:100220000F920FB60F921F9211242F933F938F932B
:100230009F938091160290911702892B09F4A0C018
:1002400092B1809105029E7F892B82B9119A1198F3
:100250008091160290911702019790931702809354
:1002600016028091140290911502892B09F48AC01C
:1002700022B1809104022B7F34E0839FC0011124BE
:10028000822B82B9139A13988091140290911502CF
:10029000019790931502809314028091120290911D
:1002A0001302892B09F470C022B1809103022F7EC2
:1002B00030E1839FC0011124822B82B9159A1598D1
:1002C00080911202909113020197909313028093F0
:1002D00012028091100290911102892B09F456C0EC
:1002E00022B1809102022F7B30E4839FC001112450
:1002F000822B82B9179A179880911002909111025F
:100300000197909311028093100280910E029091B8
:100310000F02892BE9F188B19091010290FB87F9D6
:1003200088B9469A469880910E0290910F020197E3
:1003300090930F0280930E0280910C0290910D0217
:10034000892B41F128B1809100022F7D30E2839FFB
:10035000C0011124822B88B9449A449880910C02E0
:1003600090910D02019790930D0280930C029F9142
:100370008F913F912F911F900F900FBE0F90189566
:1003800011986FCF139889CF1598A3CF1798BDCF29
:100390004698D2CF4498EBCF909307028093060201
:1003A000209106023091070283E0220F331F8A95C5
:1003B000E1F740E050E060E074E284EF90E00E94FA
:1003C000C702215031093093890020938800089595
:1003D00020ED37E030931702209316028093050238
:1003E0000895813039F47093170260931602409398
:1003F00005020895823039F4709315026093140257
:10040000409304020895833039F47093130260938B
:100410001202409303020895843039F4709311025C
:1004200060931002409302020895853039F470936E
:100430000F0260930E02409301020895863031F45A
:1004400070930D0260930C024093000208954F9246
:100450005F926F927F928F929F92AF92BF92CF9254
:10046000DF92EF92FF920F931F93CF93DF9300D011
:1004700000D00F920F92CDB7DEB769837A838B835A
:100480009C8329013A01ED82FE820F8318878A2C12
:100490009B2C560129813A814B815C8124193509B5
:1004A000460957098C8D9D8DAE8DBF8D7C018D01C8
:1004B000E818F9080A091B09C801B7010E94A3023C
:1004C0002D813E814F8158852419350946095709E8
:1004D0000E94E902DA01C901880D991DAA1DBB1D00
:1004E000BC01CD0128960FB6F894DEBF0FBECDBF7C
:1004F000DF91CF911F910F91FF90EF90DF90CF9000
:10050000BF90AF909F908F907F906F905F904F9033
:1005100008950E94E9008CE494E00E94CC01C0E0C0
:1005200041E060E177E28C2F0E94F1012FEF8BE731
:1005300092E9215080409040E1F700C00000CF5F79
:10054000C73071F7ECCFDB018F939F930E940803B4
:10055000BF91AF91A29F800D911DA39F900DB29F5F
:10056000900D11240895AA1BBB1B51E107C0AA1FBF
:10057000BB1FA617B70710F0A61BB70B881F991F44
:100580005A95A9F780959095BC01CD010895A1E2F7
:100590001A2EAA1BBB1BFD010DC0AA1FBB1FEE1FFD
:1005A000FF1FA217B307E407F50720F0A21BB30B48
:1005B000E40BF50B661F771F881F991F1A9469F7C4
:1005C00060957095809590959B01AC01BD01CF0120
:1005D0000895052E97FB1EF400940E94000357FD1A
:1005E00007D00E94C70207FC03D04EF40C9400030E
:1005F00050954095309521953F4F4F4F5F4F08954F
:1006000090958095709561957F4F8F4F9F4F08957E
:100610000E941303A59F900DB49F900DA49F800D81
:10062000911D11240895A29FB001B39FC001A39F03
:10063000700D811D1124911DB29F700D811D11241B
:08064000911D0895F894FFCF0D
:0C064800010101010101E80301D00700DD
:00000001FF
